:030000000208EC07
:0C08EC00787FE4F6D8FD75812B020933FB
:100A44000D0A4C4344206F6E0D0A000D0A4C4344BA
:100A5400206F66660D0A000D0A77726F6E670D0AC5
:100A64000045393431313630363700536875746493
:040A74006F776E002A
:100A9F000310FF0A44030BFF0A4F0308FF0A5B030F
:100AAF0022FF0A65031CFF0A6F02200000020E00DE
:010ABF000036
:0C0AF100759850758920758DE6D28E2214
:060AC100AB08AA09A90A16
:100AC7001209786010F5993099FDC299740129F9D6
:060AD700E43AFA80EB2274
:1009BE00E4FFFEF527752801AB22AA23A9248F8216
:1009CE008E83120991FD74132FF8E66D6005E4F520
:1009DE0027F52874132FF8E4F60FBF00010EEF640D
:1009EE00094E70D4E528452760057E007F0122E47C
:0209FE00FEFFFA
:010A000022D3
:100A0100E4FFFEF527752801AB1CAA1DA91E8F82E4
:100A11008E83120991FD74132FF8E66D6005E4F5DC
:100A210027F52874132FF8E4F60FBF00010EEF64C9
:100A3100084E70D4E528452760057E007F0122E439
:020A4100FEFFB6
:010A43002290
:10080000120AF13098FDC29885991F851FA0E5A0B6
:10081000B47F17D3E5219400E52064809480400ADA
:10082000E521152170DD152080D9E5A0640D602734
:100830007430D395A05006E5A09439401A7441D382
:1008400095A05006E5A0945A400D7461D395A05030
:10085000B2E5A0947A50AC74132521F8A6A0052126
:10086000E52170020520E50F450E603EC3E52194A9
:0F08700008E520648094805006E5A0640D708434
:10087F00120A018E258F26E4F520F521E526452560
:10088F006013AB0BAA0CA90D120AC7D290E4F50E98
:08089F00F50F020803120AC163
:1008A700020803C3E5219409E52064809480500978
:0908B700E5A0640D6003020803D2
:1008C0001209BE8E258F26E4F520F521E526452563
:1008D0006014AB10AA11A912120AC7C290750E00BB
:0908E000750F01020803120AC1A0
:0308E900020803FF
:100A78008B298A2A892BAB29AA2AA92B120978FF44
:100A880060147D017C00120ADD7401252BF52BE42E
:070A9800352AF52A80E02257
:100ADD008FA0EC4D24FF9296D2977F647E00120A70
:040AED00FDC297228D
:0B0AFD00EF1FAC0670011E4C70F622CB
:1008F800020800E493A3F8E493A34003F68001F20E
:1009080008DFF48029E493A3F85407240CC8C33300
:10091800C4540F4420C8834004F456800146F6DFCF
:10092800E4800B0102040810204080900A9FE47EB6
:10093800019360BCA3FF543F30E509541FFEE493C4
:10094800A360010ECF54C025E060A840B8E493A38B
:10095800FAE493A3F8E493A3C8C582C8CAC583CAB6
:10096800F0A3C8C582C8CAC583CADFE9DEE780BE6E
:010AC0000035
:10097800BB010689828A83E0225002E722BBFE027D
:09098800E32289828A83E49322B0
:10099100BB010CE58229F582E5833AF583E022501B
:1009A10006E92582F8E622BBFE06E92582F8E22265
:0D09B100E58229F582E5833AF583E493227F
:00000001FF
