:03000000020A34BD
:0C0A3400787FE4F6D8FD758116020A7B7D
:100B1800736D696C65002020202020202020202073
:060B280020202020200027
:0D0B2E00030AFF0B1802120000020D000068
:0C0B3C00759850758920758DE6D28E22C8
:10080000120B3CC2907F407E42120B48E4120B0058
:10081000E4FDFC7F0F120B04E4FDFC7F06120B04C9
:10082000E4FDFC7F40120B047D017C00E4FF120B11
:10083000047D017C007F0A120B047D017C007F1F78
:10084000120B047D017C007F1F120B047D017C00D4
:100850007F0E120B047D017C007F04120B047D01CE
:100860007C00E4FF120B047D017C00E4FF120B040A
:10087000E4FDFC7F48120B047D017C00E4FF120BB9
:10088000047D017C007F0A120B047D017C007F0A3D
:10089000120B047D017C00E4FF120B047D017C003F
:1008A0007F11120B047D017C007F0E120B047D0171
:1008B0007C00E4FF120B047D017C00E4FF120B04BA
:1008C000E4FDFC7F01120B04E4FDFC7F80120B04AD
:1008D0007BFF7A0B791E120AC07D017C00E4FF02C7
:1008E0000A1E3098FDC298859911AF11EF3395E03B
:1008F000F5088F09AF097D017C00120B04E509643E
:100900007F45087017D3E5139400E5126480948046
:10091000400AE513151370CA151280C6E509640D67
:1009200045086057D374309509E5086480F87480F1
:1009300098500CE5099439E50864809480403CD3D4
:1009400074419509E5086480F8748098500CE509B5
:10095000945AE508648094804021D374619509E538
:10096000086480F874809840030208E2E509947AEC
:10097000E5086480948040030208E2E50964734559
:10098000087011E50E450D700B050EE50E70530550
:100990000D0208E2E509646D45087013E50E640177
:1009A000450D700B050EE50E7002050D0208E2E51F
:1009B00009646945087013E50E6402450D700B0566
:1009C0000EE50E7002050D0208E2E509646C4508AB
:1009D0007013E50E6403450D700B050EE50E7002F5
:1009E000050D0208E2E50964654508703FE50E64FF
:1009F00004450D7037120B00E4FDFC7F0F120B0451
:100A0000E4FDFC7F06120B04E4FDFC7F01120B04E5
:100A1000E4FDFC7F80120B047D017C007F01120B42
:100A200004E4FDFC7FC0120B040208E2E4F50DF5BE
:040A30000E0208E2C8
:100AC0008B148A158916AB14AA15A916120AE7FF0A
:100AD00060147D017C00120B0474012516F516E4E8
:070AE0003515F51580E02239
:040B0000FDFC7F3841
:100B04008FA0EC4D24FF9296D2977F647E00120B47
:040B140048C297221A
:0B0B4800EF1FAC0670011E4C70F6227F
:100A4000020800E493A3F8E493A34003F68001F2C4
:100A500008DFF48029E493A3F85407240CC8C333B7
:100A6000C4540F4420C8834004F456800146F6DF86
:100A7000E4800B0102040810204080900B2EE47EDD
:100A8000019360BCA3FF543F30E509541FFEE4937B
:100A9000A360010ECF54C025E060A840B8E493A342
:100AA000FAE493A3F8E493A3C8C582C8CAC583CA6D
:100AB000F0A3C8C582C8CAC583CADFE9DEE780BE25
:010B3B0000B9
:100AE700BB010689828A83E0225002E722BBFE020D
:090AF700E32289828A83E4932240
:00000001FF
