:0300000002093CB6
:0C093C00787FE4F6D8FD75810902092DD2
:0F092D00C288D2A8D2AFC2B4D2B4E4F5A080FE83
:03000300020800F0
:10080000C0E0C0F0C083C082C0D075D000C000C0BE
:1008100004C005C006C007C2B5AF90EF2401FFE4D5
:1008200033FE7C007D201208A28E088F09E5087037
:1008300053E509B40900504C90083FF8282873028A
:10084000085A02085C02086102086602086B020886
:100850007002087502087A02087F802875A0FE8061
:100860002675A0FC802175A0F8801C75A0F080176B
:1008700075A0E0801275A0C0800D75A080800875FD
:10088000A000800375A0FFD2B5C2B4D2B4D007D007
:1008900006D005D004D000D0D0D082D083D0F0D004
:0208A000E03244
:1008A200C2D5EC30E709B2D5E4C39DFDE49CFCEE71
:1008B20030E715B2D5E4C39FFFE49EFE1208D8C309
:1008C200E49DFDE49CFC80031208D830D507C3E404
:0608D2009FFFE49EFE22E0
:1008D800BC000BBE0029EF8DF084FFADF022E4CC04
:1008E800F875F008EF2FFFEE33FEEC33FCEE9DECCD
:1008F800984005FCEE9DFE0FD5F0E9E4CEFD22ED13
:10090800F8F5F0EE8420D21CFEADF075F008EF2F5C
:10091800FFED33FD4007985006D5F0F222C398FD4D
:050928000FD5F0EA22EA
:00000001FF
