:030000000208A152
:0C08A100787FE4F6D8FD7581200208E89D
:1009B6000D0A636F72726563740D0A000D0A777211
:1009C6006F6E670D0A0045393431313630363700DF
:1009EC000314FF09B60308FF09C2031AFF09CC025E
:0309FC00180000E0
:0C0A0000759850758920758DE6D28E2205
:1009D60012092D6010F5993099FDC299740129F913
:0609E600E43AFA80EB2266
:10097300E4FFFEF51F752001AB1AAA1BA91C8F8289
:100983008E83120946FD740B2FF8E66D6005E4F5BE
:100993001FF520740B2FF8E4F60FBF00010EEF6470
:1009A300094E70D4E520451F60057E007F0122E4D7
:0209B300FEFF45
:0109B500221F
:10080000120A003098FDC2988599178517A0E5A0B7
:10081000B47F17D3E5199400E51864809480400AEA
:10082000E519151970DD151880D9E5A0640D60274C
:100830007430D395A05006E5A09439401A7441D382
:1008400095A05006E5A0945A400D7461D395A05030
:10085000B2E5A0947A50AC740B2519F8A6A005193E
:10086000E51970020518C39409E518648094805056
:0708700006E5A0640D708C89
:100877001209738E1D8F1EE4F518F519E51E451D27
:10088700600CAB14AA15A9161209D6020803AB0807
:07089700AA09A90A1209D603
:03089E000208034A
:1008AD00020800E493A3F8E493A34003F68001F259
:1008BD0008DFF48029E493A3F85407240CC8C3334C
:1008CD00C4540F4420C8834004F456800146F6DF1B
:1008DD00E4800B01020408102040809009ECE47EB6
:1008ED00019360BCA3FF543F30E509541FFEE49310
:1008FD00A360010ECF54C025E060A840B8E493A3D7
:10090D00FAE493A3F8E493A3C8C582C8CAC583CA01
:10091D00F0A3C8C582C8CAC583CADFE9DEE780BEB9
:0109FF0000F7
:10092D00BB010689828A83E0225002E722BBFE02C8
:09093D00E32289828A83E49322FB
:10094600BB010CE58229F582E5833AF583E0225066
:1009560006E92582F8E622BBFE06E92582F8E222B0
:0D096600E58229F582E5833AF583E49322CA
:00000001FF
