:030000000208A84B
:0C08A800787FE4F6D8FD75810A02080094
:0E089A0048656C6C6F2C20776F726C642100C7
:100800008007E580D394804036C2907F407E4212BC
:1008100008B47F381208837F0F120883E4FDFC7F41
:1008200006120886E4FDFC7F01120886E4FDFC7FC9
:10083000801208867BFF7A08799A12084380C3D217
:030840009080BFE6
:100843008B088A09890AAB08AA09A90A12086AFF50
:1008530060147D017C001208867401250AF50AE400
:070863003509F50980E022D0
:03088300E4FDFC95
:100886008FA0EC4D24FF9296D2977F647E001208CB
:04089600B4C297222F
:0B08B400EF1FAC0670011E4C70F62216
:10086A00BB010689828A83E0225002E722BBFE028C
:09087A00E32289828A83E49322BF
:00000001FF
