:03000000020910E2
:0C091000787FE4F6D8FD75810A0208002B
:100900004C4F5700484947480066696E6973680054
:10080000C2907F407E4212091CE4FDFC7F38120832
:10081000D31208CEE4FDFC7F061208D3E4FDFC7F72
:10082000011208D3E4FDFC7F801208D37F507EC301
:1008300012091CE580C39482E4FDFC7F3850261227
:1008400008D31208CEE4FDFC7F061208D3E4FDFCB9
:100850007F011208D3E4FDFC7F801208D37BFF7A6E
:1008600009790080241208D31208CEE4FDFC7F062B
:100870001208D3E4FDFC7F011208D3E4FDFC7F8065
:100880001208D37BFF7A0979041208A7E580C39484
:10089000FA4099E4FDFC7FC01208D37BFF7A097906
:0708A000091208A702082C51
:1008A7008B088A09890AAB08AA09A90A1208E7FF6F
:1008B70060147D017C001208D37401250AF50AE44F
:0708C7003509F50980E0226C
:0508CE00E4FDFC7F0FBA
:1008D3008FA0EC4D24FF9296D2977F647E0012097D
:0408E3001CC297227A
:0B091C00EF1FAC0670011E4C70F622AD
:1008E700BB010689828A83E0225002E722BBFE020F
:0908F700E32289828A83E4932242
:00000001FF
