:030000000208E50E
:0C08E500787FE4F6D8FD75810A02080057
:0A08FC004539343131363034310013
:100800007F381208CE7F0F1208CEE4FDFC7F06125F
:1008100008D1E4FDFC7F401208D17D017C00E4FF9B
:100820001208D17D017C007F0A1208D17D017C0075
:100830007F1F1208D17D017C007F1F1208D17D012E
:100840007C007F0E1208D17D017C007F041208D14C
:100850007D017C00E4FF1208D17D017C00E4FF12E1
:1008600008D1E4FDFC7F011208D1E4FDFC7F801279
:1008700008D17BFF7A0879FC12088EE4FDFC7FC06A
:0E0880001208D17D017C00E4FF1208D180FE39
:10088E008B088A09890AAB08AA09A90A1208B5FFBA
:10089E0060147D017C001208D17401250AF50AE46A
:0708AE003509F50980E02285
:0308CE00E4FDFC4A
:1008D1008F90EC4D24FF92B0D2B17F647E0012085C
:0408E100F1C2B1228D
:0B08F100EF1FAC0670011E4C70F622D9
:1008B500BB010689828A83E0225002E722BBFE0241
:0908C500E32289828A83E4932274
:00000001FF
