:0300000002098B67
:0C098B00787FE4F6D8FD75810F02097A30
:08099700010204080C0603092B
:10097A00750A03750BE8750C00750D0112080080E5
:01098A00FB71
:10080000AFA0EF2401FFE433FE7C007D201208D866
:100810008E088F09E508706BE509B40900506490F3
:100820000826F828287302084102084902085102E4
:10083000085902086102086902086B02087302087D
:100840007B750A07750BD08040750A07750B088009
:1008500038750A06750B408030750A05750B78806F
:1008600028750A04750BB080208018750A03750B73
:10087000208016750A02750B58800E750A01750BDB
:10088000908006750A03750BE8E50D6401450C7050
:1008900023F50EF50F7497250FF58274091209637D
:1008A000050FE50F7002050EC39404E50E648094F5
:1008B0008040E222E4F50EF50F749B250FF582745B
:1008C00009120963050FE50F7002050EC39404E5D4
:0708D0000E6480948040E2F9
:0108D70022FE
:0C096300350EF583E493F590AF0BAE0A5F
:0B096F00EF1FAC0670011E4C70F6225A
:1008D800C2D5EC30E709B2D5E4C39DFDE49CFCEE3B
:1008E80030E715B2D5E4C39FFFE49EFE12090EC39C
:1008F800E49DFDE49CFC800312090E30D507C3E497
:060908009FFFE49EFE22A9
:10090E00BC000BBE0029EF8DF084FFADF022E4CCCD
:10091E00F875F008EF2FFFEE33FEEC33FCEE9DEC96
:10092E00984005FCEE9DFE0FD5F0E9E4CEFD22EDDC
:10093E00F8F5F0EE8420D21CFEADF075F008EF2F26
:10094E00FFED33FD4007985006D5F0F222C398FD17
:05095E000FD5F0EA22B4
:00000001FF
