:030000000208BC37
:0C08BC00787FE4F6D8FD7581180209036E
:1009C200696E666F6E202020202020202020206368
:1009D200696E666F6E2020202020202020202000BB
:1009E2002020202020202020202020202020202005
:0809F2000063696E666F6E0080
:100A5300030AFF09C2020F000002110000020D0089
:010A63000F83
:10080000C2907F407E42120A65120A21E4FDFC7FFD
:100810000F120A26E4FDFC7F06120A26E4FDFC7F87
:1008200001120A26E4FDFC7F80120A26C28AD2AA9F
:10083000D2AFE5106402450F6008E5106403450F70
:1008400070F0120A21E4FDFC7F0F120A26E4FDFC81
:100850007F06120A26E4FDFC7F01120A26E4FDFC55
:100860007F80120A26AB0AE50C250EF9E50B350D43
:10087000FA1209FAE4FDFC7FC0120A267BFF7A090E
:1008800079E21209FAE5106402450F70067F507E86
:10089000C3800CE5106403450F70077F107E27129C
:1008A0000A65E50E450D600BE50E150E7002150D7F
:0C08B000020832750D00750E0F020832B0
:0300130002094897
:10094800C0E0C0F0C083C082C0D075D000C000C075
:1009580001C002C003C004C005C006C007E51245B7
:1009680011702FF5117512010510E5107002050FB1
:10097800E50F701EE51024FC600F240370147BFF44
:100988007A0979F31209FA80097F107E27120A651D
:1009980080F77FA07E86120A65751100751200D057
:1009A80007D006D005D004D003D002D001D000D0A3
:0A09B800D0D082D083D0F0D0E0321E
:1009FA008B168A178918AB16AA17A918120A3AFF72
:100A0A0060147D017C00120A2674012518F518E489
:070A1A003517F51780E022FB
:050A2100E4FDFC7F383C
:100A26008FA0EC4D24FF9296D2977F647E00120A27
:040A360065C29722DC
:0B0A6500EF1FAC0670011E4C70F62263
:1008C800020800E493A3F8E493A34003F68001F23E
:1008D80008DFF48029E493A3F85407240CC8C33331
:1008E800C4540F4420C8834004F456800146F6DF00
:1008F800E4800B0102040810204080900A53E47E33
:10090800019360BCA3FF543F30E509541FFEE493F4
:10091800A360010ECF54C025E060A840B8E493A3BB
:10092800FAE493A3F8E493A3C8C582C8CAC583CAE6
:10093800F0A3C8C582C8CAC583CADFE9DEE780BE9E
:010A64000091
:100A3A00BB010689828A83E0225002E722BBFE02BA
:090A4A00E32289828A83E49322ED
:00000001FF
